{
  "contractName": "Operator",
  "abi": [
    {
      "inputs": [
        {
          "internalType": "address",
          "name": "lpAddress",
          "type": "address"
        }
      ],
      "stateMutability": "nonpayable",
      "type": "constructor"
    },
    {
      "anonymous": false,
      "inputs": [
        {
          "indexed": true,
          "internalType": "address",
          "name": "owner",
          "type": "address"
        },
        {
          "indexed": true,
          "internalType": "address",
          "name": "spender",
          "type": "address"
        },
        {
          "indexed": false,
          "internalType": "uint256",
          "name": "value",
          "type": "uint256"
        }
      ],
      "name": "Approval",
      "type": "event"
    },
    {
      "anonymous": false,
      "inputs": [
        {
          "indexed": true,
          "internalType": "address",
          "name": "from",
          "type": "address"
        },
        {
          "indexed": true,
          "internalType": "address",
          "name": "to",
          "type": "address"
        },
        {
          "indexed": false,
          "internalType": "uint256",
          "name": "value",
          "type": "uint256"
        }
      ],
      "name": "Transfer",
      "type": "event"
    },
    {
      "inputs": [],
      "name": "FEE",
      "outputs": [
        {
          "internalType": "uint256",
          "name": "",
          "type": "uint256"
        }
      ],
      "stateMutability": "view",
      "type": "function",
      "constant": true
    },
    {
      "inputs": [
        {
          "internalType": "address",
          "name": "owner",
          "type": "address"
        },
        {
          "internalType": "address",
          "name": "spender",
          "type": "address"
        }
      ],
      "name": "allowance",
      "outputs": [
        {
          "internalType": "uint256",
          "name": "",
          "type": "uint256"
        }
      ],
      "stateMutability": "view",
      "type": "function",
      "constant": true
    },
    {
      "inputs": [
        {
          "internalType": "address",
          "name": "spender",
          "type": "address"
        },
        {
          "internalType": "uint256",
          "name": "amount",
          "type": "uint256"
        }
      ],
      "name": "approve",
      "outputs": [
        {
          "internalType": "bool",
          "name": "",
          "type": "bool"
        }
      ],
      "stateMutability": "nonpayable",
      "type": "function"
    },
    {
      "inputs": [
        {
          "internalType": "address",
          "name": "account",
          "type": "address"
        }
      ],
      "name": "balanceOf",
      "outputs": [
        {
          "internalType": "uint256",
          "name": "",
          "type": "uint256"
        }
      ],
      "stateMutability": "view",
      "type": "function",
      "constant": true
    },
    {
      "inputs": [],
      "name": "decimals",
      "outputs": [
        {
          "internalType": "uint8",
          "name": "",
          "type": "uint8"
        }
      ],
      "stateMutability": "view",
      "type": "function",
      "constant": true
    },
    {
      "inputs": [
        {
          "internalType": "address",
          "name": "spender",
          "type": "address"
        },
        {
          "internalType": "uint256",
          "name": "subtractedValue",
          "type": "uint256"
        }
      ],
      "name": "decreaseAllowance",
      "outputs": [
        {
          "internalType": "bool",
          "name": "",
          "type": "bool"
        }
      ],
      "stateMutability": "nonpayable",
      "type": "function"
    },
    {
      "inputs": [
        {
          "internalType": "address",
          "name": "spender",
          "type": "address"
        },
        {
          "internalType": "uint256",
          "name": "addedValue",
          "type": "uint256"
        }
      ],
      "name": "increaseAllowance",
      "outputs": [
        {
          "internalType": "bool",
          "name": "",
          "type": "bool"
        }
      ],
      "stateMutability": "nonpayable",
      "type": "function"
    },
    {
      "inputs": [],
      "name": "liquidityToken",
      "outputs": [
        {
          "internalType": "contract LiquidityProvider",
          "name": "",
          "type": "address"
        }
      ],
      "stateMutability": "view",
      "type": "function",
      "constant": true
    },
    {
      "inputs": [],
      "name": "name",
      "outputs": [
        {
          "internalType": "string",
          "name": "",
          "type": "string"
        }
      ],
      "stateMutability": "view",
      "type": "function",
      "constant": true
    },
    {
      "inputs": [],
      "name": "symbol",
      "outputs": [
        {
          "internalType": "string",
          "name": "",
          "type": "string"
        }
      ],
      "stateMutability": "view",
      "type": "function",
      "constant": true
    },
    {
      "inputs": [],
      "name": "totalSupply",
      "outputs": [
        {
          "internalType": "uint256",
          "name": "",
          "type": "uint256"
        }
      ],
      "stateMutability": "view",
      "type": "function",
      "constant": true
    },
    {
      "inputs": [
        {
          "internalType": "address",
          "name": "recipient",
          "type": "address"
        },
        {
          "internalType": "uint256",
          "name": "amount",
          "type": "uint256"
        }
      ],
      "name": "transfer",
      "outputs": [
        {
          "internalType": "bool",
          "name": "",
          "type": "bool"
        }
      ],
      "stateMutability": "nonpayable",
      "type": "function"
    },
    {
      "inputs": [
        {
          "internalType": "address",
          "name": "sender",
          "type": "address"
        },
        {
          "internalType": "address",
          "name": "recipient",
          "type": "address"
        },
        {
          "internalType": "uint256",
          "name": "amount",
          "type": "uint256"
        }
      ],
      "name": "transferFrom",
      "outputs": [
        {
          "internalType": "bool",
          "name": "",
          "type": "bool"
        }
      ],
      "stateMutability": "nonpayable",
      "type": "function"
    },
    {
      "inputs": [
        {
          "internalType": "uint256",
          "name": "amount",
          "type": "uint256"
        }
      ],
      "name": "deposit",
      "outputs": [],
      "stateMutability": "nonpayable",
      "type": "function"
    },
    {
      "inputs": [],
      "name": "withdraw",
      "outputs": [],
      "stateMutability": "nonpayable",
      "type": "function"
    },
    {
      "inputs": [
        {
          "internalType": "uint256",
          "name": "amount",
          "type": "uint256"
        }
      ],
      "name": "calculateFee",
      "outputs": [
        {
          "internalType": "uint256",
          "name": "",
          "type": "uint256"
        }
      ],
      "stateMutability": "view",
      "type": "function",
      "constant": true
    }
  ],
  "bytecode": "0x60806040526103e86006553480156200001757600080fd5b50604051620022b2380380620022b283398181016040528101906200003d919062000389565b6040518060400160405280600e81526020017f4f70657261746f7220546f6b656e0000000000000000000000000000000000008152506040518060400160405280600381526020017f4f505400000000000000000000000000000000000000000000000000000000008152508160039080519060200190620000c1929190620002c2565b508060049080519060200190620000da929190620002c2565b50505080600560006101000a81548173ffffffffffffffffffffffffffffffffffffffff021916908373ffffffffffffffffffffffffffffffffffffffff16021790555062000138336729a2241af62c00006200013f60201b60201c565b50620005ba565b600073ffffffffffffffffffffffffffffffffffffffff168273ffffffffffffffffffffffffffffffffffffffff161415620001b2576040517f08c379a0000000000000000000000000000000000000000000000000000000008152600401620001a990620003f3565b60405180910390fd5b620001c660008383620002b860201b60201c565b8060026000828254620001da919062000443565b92505081905550806000808473ffffffffffffffffffffffffffffffffffffffff1673ffffffffffffffffffffffffffffffffffffffff168152602001908152602001600020600082825462000231919062000443565b925050819055508173ffffffffffffffffffffffffffffffffffffffff16600073ffffffffffffffffffffffffffffffffffffffff167fddf252ad1be2c89b69c2b068fc378daa952ba7f163c4a11628f55a4df523b3ef8360405162000298919062000415565b60405180910390a3620002b460008383620002bd60201b60201c565b5050565b505050565b505050565b828054620002d090620004de565b90600052602060002090601f016020900481019282620002f4576000855562000340565b82601f106200030f57805160ff191683800117855562000340565b8280016001018555821562000340579182015b828111156200033f57825182559160200191906001019062000322565b5b5090506200034f919062000353565b5090565b5b808211156200036e57600081600090555060010162000354565b5090565b6000815190506200038381620005a0565b92915050565b600060208284031215620003a257620003a162000572565b5b6000620003b28482850162000372565b91505092915050565b6000620003ca601f8362000432565b9150620003d78262000577565b602082019050919050565b620003ed81620004d4565b82525050565b600060208201905081810360008301526200040e81620003bb565b9050919050565b60006020820190506200042c6000830184620003e2565b92915050565b600082825260208201905092915050565b60006200045082620004d4565b91506200045d83620004d4565b9250827fffffffffffffffffffffffffffffffffffffffffffffffffffffffffffffffff0382111562000495576200049462000514565b5b828201905092915050565b6000620004ad82620004b4565b9050919050565b600073ffffffffffffffffffffffffffffffffffffffff82169050919050565b6000819050919050565b60006002820490506001821680620004f757607f821691505b602082108114156200050e576200050d62000543565b5b50919050565b7f4e487b7100000000000000000000000000000000000000000000000000000000600052601160045260246000fd5b7f4e487b7100000000000000000000000000000000000000000000000000000000600052602260045260246000fd5b600080fd5b7f45524332303a206d696e7420746f20746865207a65726f206164647265737300600082015250565b620005ab81620004a0565b8114620005b757600080fd5b50565b611ce880620005ca6000396000f3fe608060405234801561001057600080fd5b50600436106101005760003560e01c806370a0823111610097578063a9059cbb11610066578063a9059cbb146102c5578063b6b55f25146102f5578063c57981b514610311578063dd62ed3e1461032f57610100565b806370a082311461021757806395d89b411461024757806399a5d74714610265578063a457c2d71461029557610100565b8063313ce567116100d3578063313ce567146101a157806339509351146101bf5780633ccfd60b146101ef57806343cd8f7e146101f957610100565b806306fdde0314610105578063095ea7b31461012357806318160ddd1461015357806323b872dd14610171575b600080fd5b61010d61035f565b60405161011a91906114a6565b60405180910390f35b61013d600480360381019061013891906111ea565b6103f1565b60405161014a9190611470565b60405180910390f35b61015b61040f565b6040516101689190611648565b60405180910390f35b61018b60048036038101906101869190611197565b610419565b6040516101989190611470565b60405180910390f35b6101a9610511565b6040516101b69190611663565b60405180910390f35b6101d960048036038101906101d491906111ea565b61051a565b6040516101e69190611470565b60405180910390f35b6101f76105c6565b005b610201610625565b60405161020e919061148b565b60405180910390f35b610231600480360381019061022c919061112a565b61064b565b60405161023e9190611648565b60405180910390f35b61024f610693565b60405161025c91906114a6565b60405180910390f35b61027f600480360381019061027a919061122a565b610725565b60405161028c9190611648565b60405180910390f35b6102af60048036038101906102aa91906111ea565b6107a3565b6040516102bc9190611470565b60405180910390f35b6102df60048036038101906102da91906111ea565b61088e565b6040516102ec9190611470565b60405180910390f35b61030f600480360381019061030a919061122a565b6108ac565b005b6103196108de565b6040516103269190611648565b60405180910390f35b61034960048036038101906103449190611157565b6108e4565b6040516103569190611648565b60405180910390f35b60606003805461036e9061186d565b80601f016020809104026020016040519081016040528092919081815260200182805461039a9061186d565b80156103e75780601f106103bc576101008083540402835291602001916103e7565b820191906000526020600020905b8154815290600101906020018083116103ca57829003601f168201915b5050505050905090565b60006104056103fe61096b565b8484610973565b6001905092915050565b6000600254905090565b6000610426848484610b3e565b6000600160008673ffffffffffffffffffffffffffffffffffffffff1673ffffffffffffffffffffffffffffffffffffffff168152602001908152602001600020600061047161096b565b73ffffffffffffffffffffffffffffffffffffffff1673ffffffffffffffffffffffffffffffffffffffff168152602001908152602001600020549050828110156104f1576040517f08c379a00000000000000000000000000000000000000000000000000000000081526004016104e890611568565b60405180910390fd5b610505856104fd61096b565b858403610973565b60019150509392505050565b60006012905090565b60006105bc61052761096b565b84846001600061053561096b565b73ffffffffffffffffffffffffffffffffffffffff1673ffffffffffffffffffffffffffffffffffffffff16815260200190815260200160002060008873ffffffffffffffffffffffffffffffffffffffff1673ffffffffffffffffffffffffffffffffffffffff168152602001908152602001600020546105b7919061169a565b610973565b6001905092915050565b60006105d13361064b565b11610611576040517f08c379a0000000000000000000000000000000000000000000000000000000008152600401610608906115e8565b60405180910390fd5b6106233361061e3361064b565b610dbf565b565b600560009054906101000a900473ffffffffffffffffffffffffffffffffffffffff1681565b60008060008373ffffffffffffffffffffffffffffffffffffffff1673ffffffffffffffffffffffffffffffffffffffff168152602001908152602001600020549050919050565b6060600480546106a29061186d565b80601f01602080910402602001604051908101604052809291908181526020018280546106ce9061186d565b801561071b5780601f106106f05761010080835404028352916020019161071b565b820191906000526020600020905b8154815290600101906020018083116106fe57829003601f168201915b5050505050905090565b600081612710808461073791906116f0565b6107419190611721565b14610781576040517f08c379a000000000000000000000000000000000000000000000000000000000815260040161077890611528565b60405180910390fd5b612710600654836107929190611721565b61079c91906116f0565b9050919050565b600080600160006107b261096b565b73ffffffffffffffffffffffffffffffffffffffff1673ffffffffffffffffffffffffffffffffffffffff16815260200190815260200160002060008573ffffffffffffffffffffffffffffffffffffffff1673ffffffffffffffffffffffffffffffffffffffff1681526020019081526020016000205490508281101561086f576040517f08c379a000000000000000000000000000000000000000000000000000000000815260040161086690611608565b60405180910390fd5b61088361087a61096b565b85858403610973565b600191505092915050565b60006108a261089b61096b565b8484610b3e565b6001905092915050565b6108b7333083610419565b5060006108c382610725565b90506108da3382846108d5919061169a565b610f96565b5050565b60065481565b6000600160008473ffffffffffffffffffffffffffffffffffffffff1673ffffffffffffffffffffffffffffffffffffffff16815260200190815260200160002060008373ffffffffffffffffffffffffffffffffffffffff1673ffffffffffffffffffffffffffffffffffffffff16815260200190815260200160002054905092915050565b600033905090565b600073ffffffffffffffffffffffffffffffffffffffff168373ffffffffffffffffffffffffffffffffffffffff1614156109e3576040517f08c379a00000000000000000000000000000000000000000000000000000000081526004016109da906115c8565b60405180910390fd5b600073ffffffffffffffffffffffffffffffffffffffff168273ffffffffffffffffffffffffffffffffffffffff161415610a53576040517f08c379a0000000000000000000000000000000000000000000000000000000008152600401610a4a90611508565b60405180910390fd5b80600160008573ffffffffffffffffffffffffffffffffffffffff1673ffffffffffffffffffffffffffffffffffffffff16815260200190815260200160002060008473ffffffffffffffffffffffffffffffffffffffff1673ffffffffffffffffffffffffffffffffffffffff168152602001908152602001600020819055508173ffffffffffffffffffffffffffffffffffffffff168373ffffffffffffffffffffffffffffffffffffffff167f8c5be1e5ebec7d5bd14f71427d1e84f3dd0314c0f7b2291e5b200ac8c7c3b92583604051610b319190611648565b60405180910390a3505050565b600073ffffffffffffffffffffffffffffffffffffffff168373ffffffffffffffffffffffffffffffffffffffff161415610bae576040517f08c379a0000000000000000000000000000000000000000000000000000000008152600401610ba5906115a8565b60405180910390fd5b600073ffffffffffffffffffffffffffffffffffffffff168273ffffffffffffffffffffffffffffffffffffffff161415610c1e576040517f08c379a0000000000000000000000000000000000000000000000000000000008152600401610c15906114c8565b60405180910390fd5b610c298383836110f6565b60008060008573ffffffffffffffffffffffffffffffffffffffff1673ffffffffffffffffffffffffffffffffffffffff16815260200190815260200160002054905081811015610caf576040517f08c379a0000000000000000000000000000000000000000000000000000000008152600401610ca690611548565b60405180910390fd5b8181036000808673ffffffffffffffffffffffffffffffffffffffff1673ffffffffffffffffffffffffffffffffffffffff16815260200190815260200160002081905550816000808573ffffffffffffffffffffffffffffffffffffffff1673ffffffffffffffffffffffffffffffffffffffff1681526020019081526020016000206000828254610d42919061169a565b925050819055508273ffffffffffffffffffffffffffffffffffffffff168473ffffffffffffffffffffffffffffffffffffffff167fddf252ad1be2c89b69c2b068fc378daa952ba7f163c4a11628f55a4df523b3ef84604051610da69190611648565b60405180910390a3610db98484846110fb565b50505050565b600073ffffffffffffffffffffffffffffffffffffffff168273ffffffffffffffffffffffffffffffffffffffff161415610e2f576040517f08c379a0000000000000000000000000000000000000000000000000000000008152600401610e2690611588565b60405180910390fd5b610e3b826000836110f6565b60008060008473ffffffffffffffffffffffffffffffffffffffff1673ffffffffffffffffffffffffffffffffffffffff16815260200190815260200160002054905081811015610ec1576040517f08c379a0000000000000000000000000000000000000000000000000000000008152600401610eb8906114e8565b60405180910390fd5b8181036000808573ffffffffffffffffffffffffffffffffffffffff1673ffffffffffffffffffffffffffffffffffffffff168152602001908152602001600020819055508160026000828254610f18919061177b565b92505081905550600073ffffffffffffffffffffffffffffffffffffffff168373ffffffffffffffffffffffffffffffffffffffff167fddf252ad1be2c89b69c2b068fc378daa952ba7f163c4a11628f55a4df523b3ef84604051610f7d9190611648565b60405180910390a3610f91836000846110fb565b505050565b600073ffffffffffffffffffffffffffffffffffffffff168273ffffffffffffffffffffffffffffffffffffffff161415611006576040517f08c379a0000000000000000000000000000000000000000000000000000000008152600401610ffd90611628565b60405180910390fd5b611012600083836110f6565b8060026000828254611024919061169a565b92505081905550806000808473ffffffffffffffffffffffffffffffffffffffff1673ffffffffffffffffffffffffffffffffffffffff1681526020019081526020016000206000828254611079919061169a565b925050819055508173ffffffffffffffffffffffffffffffffffffffff16600073ffffffffffffffffffffffffffffffffffffffff167fddf252ad1be2c89b69c2b068fc378daa952ba7f163c4a11628f55a4df523b3ef836040516110de9190611648565b60405180910390a36110f2600083836110fb565b5050565b505050565b505050565b60008135905061110f81611c84565b92915050565b60008135905061112481611c9b565b92915050565b6000602082840312156111405761113f61192c565b5b600061114e84828501611100565b91505092915050565b6000806040838503121561116e5761116d61192c565b5b600061117c85828601611100565b925050602061118d85828601611100565b9150509250929050565b6000806000606084860312156111b0576111af61192c565b5b60006111be86828701611100565b93505060206111cf86828701611100565b92505060406111e086828701611115565b9150509250925092565b600080604083850312156112015761120061192c565b5b600061120f85828601611100565b925050602061122085828601611115565b9150509250929050565b6000602082840312156112405761123f61192c565b5b600061124e84828501611115565b91505092915050565b611260816117c1565b82525050565b61126f81611804565b82525050565b60006112808261167e565b61128a8185611689565b935061129a81856020860161183a565b6112a381611931565b840191505092915050565b60006112bb602383611689565b91506112c682611942565b604082019050919050565b60006112de602283611689565b91506112e982611991565b604082019050919050565b6000611301602283611689565b915061130c826119e0565b604082019050919050565b6000611324600983611689565b915061132f82611a2f565b602082019050919050565b6000611347602683611689565b915061135282611a58565b604082019050919050565b600061136a602883611689565b915061137582611aa7565b604082019050919050565b600061138d602183611689565b915061139882611af6565b604082019050919050565b60006113b0602583611689565b91506113bb82611b45565b604082019050919050565b60006113d3602483611689565b91506113de82611b94565b604082019050919050565b60006113f6601483611689565b915061140182611be3565b602082019050919050565b6000611419602583611689565b915061142482611c0c565b604082019050919050565b600061143c601f83611689565b915061144782611c5b565b602082019050919050565b61145b816117ed565b82525050565b61146a816117f7565b82525050565b60006020820190506114856000830184611257565b92915050565b60006020820190506114a06000830184611266565b92915050565b600060208201905081810360008301526114c08184611275565b905092915050565b600060208201905081810360008301526114e1816112ae565b9050919050565b60006020820190508181036000830152611501816112d1565b9050919050565b60006020820190508181036000830152611521816112f4565b9050919050565b6000602082019050818103600083015261154181611317565b9050919050565b600060208201905081810360008301526115618161133a565b9050919050565b600060208201905081810360008301526115818161135d565b9050919050565b600060208201905081810360008301526115a181611380565b9050919050565b600060208201905081810360008301526115c1816113a3565b9050919050565b600060208201905081810360008301526115e1816113c6565b9050919050565b60006020820190508181036000830152611601816113e9565b9050919050565b600060208201905081810360008301526116218161140c565b9050919050565b600060208201905081810360008301526116418161142f565b9050919050565b600060208201905061165d6000830184611452565b92915050565b60006020820190506116786000830184611461565b92915050565b600081519050919050565b600082825260208201905092915050565b60006116a5826117ed565b91506116b0836117ed565b9250827fffffffffffffffffffffffffffffffffffffffffffffffffffffffffffffffff038211156116e5576116e461189f565b5b828201905092915050565b60006116fb826117ed565b9150611706836117ed565b925082611716576117156118ce565b5b828204905092915050565b600061172c826117ed565b9150611737836117ed565b9250817fffffffffffffffffffffffffffffffffffffffffffffffffffffffffffffffff04831182151516156117705761176f61189f565b5b828202905092915050565b6000611786826117ed565b9150611791836117ed565b9250828210156117a4576117a361189f565b5b828203905092915050565b60006117ba826117cd565b9050919050565b60008115159050919050565b600073ffffffffffffffffffffffffffffffffffffffff82169050919050565b6000819050919050565b600060ff82169050919050565b600061180f82611816565b9050919050565b600061182182611828565b9050919050565b6000611833826117cd565b9050919050565b60005b8381101561185857808201518184015260208101905061183d565b83811115611867576000848401525b50505050565b6000600282049050600182168061188557607f821691505b60208210811415611899576118986118fd565b5b50919050565b7f4e487b7100000000000000000000000000000000000000000000000000000000600052601160045260246000fd5b7f4e487b7100000000000000000000000000000000000000000000000000000000600052601260045260246000fd5b7f4e487b7100000000000000000000000000000000000000000000000000000000600052602260045260246000fd5b600080fd5b6000601f19601f8301169050919050565b7f45524332303a207472616e7366657220746f20746865207a65726f206164647260008201527f6573730000000000000000000000000000000000000000000000000000000000602082015250565b7f45524332303a206275726e20616d6f756e7420657863656564732062616c616e60008201527f6365000000000000000000000000000000000000000000000000000000000000602082015250565b7f45524332303a20617070726f766520746f20746865207a65726f20616464726560008201527f7373000000000000000000000000000000000000000000000000000000000000602082015250565b7f746f6f20736d616c6c0000000000000000000000000000000000000000000000600082015250565b7f45524332303a207472616e7366657220616d6f756e742065786365656473206260008201527f616c616e63650000000000000000000000000000000000000000000000000000602082015250565b7f45524332303a207472616e7366657220616d6f756e742065786365656473206160008201527f6c6c6f77616e6365000000000000000000000000000000000000000000000000602082015250565b7f45524332303a206275726e2066726f6d20746865207a65726f2061646472657360008201527f7300000000000000000000000000000000000000000000000000000000000000602082015250565b7f45524332303a207472616e736665722066726f6d20746865207a65726f20616460008201527f6472657373000000000000000000000000000000000000000000000000000000602082015250565b7f45524332303a20617070726f76652066726f6d20746865207a65726f2061646460008201527f7265737300000000000000000000000000000000000000000000000000000000602082015250565b7f796f7520646f6e74206861766520616e6f756768000000000000000000000000600082015250565b7f45524332303a2064656372656173656420616c6c6f77616e63652062656c6f7760008201527f207a65726f000000000000000000000000000000000000000000000000000000602082015250565b7f45524332303a206d696e7420746f20746865207a65726f206164647265737300600082015250565b611c8d816117af565b8114611c9857600080fd5b50565b611ca4816117ed565b8114611caf57600080fd5b5056fea264697066735822122076ca3716f248caf57f680ec60c0b856ad451263a8472c43a41c6be33e41b909364736f6c63430008070033",
  "immutableReferences": {},
  "source": "// SPDX-License-Identifier: MIT\npragma solidity ^0.8.7;\n\nimport \"@openzeppelin/contracts/token/ERC20/ERC20.sol\";\nimport \"./LiquidityProvider.sol\";\n\ncontract Operator is ERC20 {\n    LiquidityProvider public liquidityToken;\n    uint256 public FEE = 1_000; //10%\n\n    constructor(address lpAddress) ERC20(\"Operator Token\", \"OPT\") {\n        liquidityToken = LiquidityProvider(lpAddress);\n        _mint(msg.sender, 3 * 10**18);\n    }\n\n    function deposit(uint256 amount) public {\n        //aprove this contract first first\n        transferFrom(msg.sender, address(this), amount);\n        uint256 lp = calculateFee(amount);\n        _mint(msg.sender, amount + lp);\n    }\n\n    function withdraw() public {\n        require(balanceOf(msg.sender) > 0, \"you dont have anough\");\n        _burn(msg.sender, balanceOf(msg.sender));\n        // liquidityToken.burn(msg.sender, balanceOf(msg.sender));\n    }\n\n    //185 basis points = 1.85 pct\n    function calculateFee(uint256 amount) public view returns (uint256) {\n        require((amount / 10000) * 10000 == amount, \"too small\");\n        return (amount * FEE) / 10000;\n    }\n}\n",
  "sourcePath": "/Volumes/APPLE HDD/reactprojects/lp-truffle/contracts/Operator.sol",
  "compiler": {
    "name": "solc",
    "version": "0.8.7+commit.e28d00a7.Emscripten.clang"
  },
  "schemaVersion": "3.4.3",
  "updatedAt": "2021-11-30T07:56:26.909Z",
  "networkType": "ethereum",
  "devdoc": {
    "kind": "dev",
    "methods": {
      "allowance(address,address)": {
        "details": "See {IERC20-allowance}."
      },
      "approve(address,uint256)": {
        "details": "See {IERC20-approve}. Requirements: - `spender` cannot be the zero address."
      },
      "balanceOf(address)": {
        "details": "See {IERC20-balanceOf}."
      },
      "decimals()": {
        "details": "Returns the number of decimals used to get its user representation. For example, if `decimals` equals `2`, a balance of `505` tokens should be displayed to a user as `5.05` (`505 / 10 ** 2`). Tokens usually opt for a value of 18, imitating the relationship between Ether and Wei. This is the value {ERC20} uses, unless this function is overridden; NOTE: This information is only used for _display_ purposes: it in no way affects any of the arithmetic of the contract, including {IERC20-balanceOf} and {IERC20-transfer}."
      },
      "decreaseAllowance(address,uint256)": {
        "details": "Atomically decreases the allowance granted to `spender` by the caller. This is an alternative to {approve} that can be used as a mitigation for problems described in {IERC20-approve}. Emits an {Approval} event indicating the updated allowance. Requirements: - `spender` cannot be the zero address. - `spender` must have allowance for the caller of at least `subtractedValue`."
      },
      "increaseAllowance(address,uint256)": {
        "details": "Atomically increases the allowance granted to `spender` by the caller. This is an alternative to {approve} that can be used as a mitigation for problems described in {IERC20-approve}. Emits an {Approval} event indicating the updated allowance. Requirements: - `spender` cannot be the zero address."
      },
      "name()": {
        "details": "Returns the name of the token."
      },
      "symbol()": {
        "details": "Returns the symbol of the token, usually a shorter version of the name."
      },
      "totalSupply()": {
        "details": "See {IERC20-totalSupply}."
      },
      "transfer(address,uint256)": {
        "details": "See {IERC20-transfer}. Requirements: - `recipient` cannot be the zero address. - the caller must have a balance of at least `amount`."
      },
      "transferFrom(address,address,uint256)": {
        "details": "See {IERC20-transferFrom}. Emits an {Approval} event indicating the updated allowance. This is not required by the EIP. See the note at the beginning of {ERC20}. Requirements: - `sender` and `recipient` cannot be the zero address. - `sender` must have a balance of at least `amount`. - the caller must have allowance for ``sender``'s tokens of at least `amount`."
      }
    },
    "version": 1
  },
  "userdoc": {
    "kind": "user",
    "methods": {},
    "version": 1
  }
}