{
  "contractName": "Operator",
  "abi": [
    {
      "inputs": [
        {
          "internalType": "address",
          "name": "lpAddress",
          "type": "address"
        }
      ],
      "stateMutability": "nonpayable",
      "type": "constructor"
    },
    {
      "inputs": [],
      "name": "liquidityToken",
      "outputs": [
        {
          "internalType": "contract LiquidityProvider",
          "name": "",
          "type": "address"
        }
      ],
      "stateMutability": "view",
      "type": "function",
      "constant": true
    },
    {
      "inputs": [
        {
          "internalType": "uint256",
          "name": "amount",
          "type": "uint256"
        }
      ],
      "name": "deposit",
      "outputs": [],
      "stateMutability": "nonpayable",
      "type": "function"
    },
    {
      "inputs": [
        {
          "internalType": "uint256",
          "name": "amount",
          "type": "uint256"
        }
      ],
      "name": "calculateFee",
      "outputs": [
        {
          "internalType": "uint256",
          "name": "",
          "type": "uint256"
        }
      ],
      "stateMutability": "pure",
      "type": "function",
      "constant": true
    }
  ],
  "bytecode": "0x608060405234801561001057600080fd5b5060405161073c38038061073c8339818101604052810190610032919061008d565b806000806101000a81548173ffffffffffffffffffffffffffffffffffffffff021916908373ffffffffffffffffffffffffffffffffffffffff16021790555050610108565b600081519050610087816100f1565b92915050565b6000602082840312156100a3576100a26100ec565b5b60006100b184828501610078565b91505092915050565b60006100c5826100cc565b9050919050565b600073ffffffffffffffffffffffffffffffffffffffff82169050919050565b600080fd5b6100fa816100ba565b811461010557600080fd5b50565b610625806101176000396000f3fe608060405234801561001057600080fd5b50600436106100415760003560e01c806343cd8f7e1461004657806399a5d74714610064578063b6b55f2514610094575b600080fd5b61004e6100b0565b60405161005b91906103c5565b60405180910390f35b61007e600480360381019061007991906102e8565b6100d4565b60405161008b9190610400565b60405180910390f35b6100ae60048036038101906100a991906102e8565b610151565b005b60008054906101000a900473ffffffffffffffffffffffffffffffffffffffff1681565b60008161271080846100e6919061042c565b6100f0919061045d565b14610130576040517f08c379a0000000000000000000000000000000000000000000000000000000008152600401610127906103e0565b60405180910390fd5b61271060b983610140919061045d565b61014a919061042c565b9050919050565b60008054906101000a900473ffffffffffffffffffffffffffffffffffffffff1673ffffffffffffffffffffffffffffffffffffffff166323b872dd3330846040518463ffffffff1660e01b81526004016101ae93929190610365565b602060405180830381600087803b1580156101c857600080fd5b505af11580156101dc573d6000803e3d6000fd5b505050506040513d601f19601f8201168201806040525081019061020091906102bb565b5060008054906101000a900473ffffffffffffffffffffffffffffffffffffffff1673ffffffffffffffffffffffffffffffffffffffff166340c10f1933836040518363ffffffff1660e01b815260040161025c92919061039c565b600060405180830381600087803b15801561027657600080fd5b505af115801561028a573d6000803e3d6000fd5b5050505050565b6000815190506102a0816105c1565b92915050565b6000813590506102b5816105d8565b92915050565b6000602082840312156102d1576102d0610593565b5b60006102df84828501610291565b91505092915050565b6000602082840312156102fe576102fd610593565b5b600061030c848285016102a6565b91505092915050565b61031e816104b7565b82525050565b61032d816104ff565b82525050565b600061034060098361041b565b915061034b82610598565b602082019050919050565b61035f816104f5565b82525050565b600060608201905061037a6000830186610315565b6103876020830185610315565b6103946040830184610356565b949350505050565b60006040820190506103b16000830185610315565b6103be6020830184610356565b9392505050565b60006020820190506103da6000830184610324565b92915050565b600060208201905081810360008301526103f981610333565b9050919050565b60006020820190506104156000830184610356565b92915050565b600082825260208201905092915050565b6000610437826104f5565b9150610442836104f5565b92508261045257610451610564565b5b828204905092915050565b6000610468826104f5565b9150610473836104f5565b9250817fffffffffffffffffffffffffffffffffffffffffffffffffffffffffffffffff04831182151516156104ac576104ab610535565b5b828202905092915050565b60006104c2826104d5565b9050919050565b60008115159050919050565b600073ffffffffffffffffffffffffffffffffffffffff82169050919050565b6000819050919050565b600061050a82610511565b9050919050565b600061051c82610523565b9050919050565b600061052e826104d5565b9050919050565b7f4e487b7100000000000000000000000000000000000000000000000000000000600052601160045260246000fd5b7f4e487b7100000000000000000000000000000000000000000000000000000000600052601260045260246000fd5b600080fd5b7f746f6f20736d616c6c0000000000000000000000000000000000000000000000600082015250565b6105ca816104c9565b81146105d557600080fd5b50565b6105e1816104f5565b81146105ec57600080fd5b5056fea2646970667358221220e5e109499bb6cc066af965c815b62808f5cd537422449289dd085283c0dab53e64736f6c63430008070033",
  "immutableReferences": {},
  "source": "// SPDX-License-Identifier: MIT\npragma solidity ^0.8.7;\n\n// import \"@openzeppelin/contracts/token/ERC20/IERC20.sol\";\nimport \"./LiquidityProvider.sol\";\n\ncontract Operator {\n    LiquidityProvider public liquidityToken;\n\n    constructor(address lpAddress) {\n        liquidityToken = LiquidityProvider(lpAddress);\n    }\n\n    function deposit(uint256 amount) public {\n        //aprove this contract first first\n        liquidityToken.transferFrom(msg.sender, address(this), amount);\n        liquidityToken.mint(msg.sender, amount);\n    }\n\n    //185 basis points = 1.85 pct\n    function calculateFee(uint256 amount) external pure returns (uint256) {\n        require((amount / 10000) * 10000 == amount, \"too small\");\n\n        return (amount * 185) / 10000;\n    }\n}\n",
  "sourcePath": "/Volumes/APPLE HDD/reactprojects/lp-truffle/contracts/Operator.sol",
  "compiler": {
    "name": "solc",
    "version": "0.8.7+commit.e28d00a7.Emscripten.clang"
  },
  "schemaVersion": "3.4.3",
  "updatedAt": "2021-11-30T06:05:19.651Z",
  "networkType": "ethereum",
  "devdoc": {
    "kind": "dev",
    "methods": {},
    "version": 1
  },
  "userdoc": {
    "kind": "user",
    "methods": {},
    "version": 1
  }
}